{
  "transactions": [
    {
      "hash": "0x4298945e194a7b853ad8bf5dda3a4f320f798d2a786396cb4b069c92976d3c64",
      "transactionType": "CALL",
      "contractName": null,
      "contractAddress": "0xd95cd883722ad1207b3c82cfd02dcac7e308faff",
      "function": "mintNft(string)",
      "arguments": [
        "ipfs://bafybeig37ioir76s7mg5oobetncojcm3c3hxasyd4rvid4jqhy4gkaheg4/?filename=0-PUG.json"
      ],
      "transaction": {
        "from": "0x390a1e00aa3d868a084caccd1095f41be5e7ca13",
        "to": "0xd95cd883722ad1207b3c82cfd02dcac7e308faff",
        "gas": "0x3da7f",
        "value": "0x0",
        "input": "0xda86f4a900000000000000000000000000000000000000000000000000000000000000200000000000000000000000000000000000000000000000000000000000000057697066733a2f2f62616679626569673337696f6972373673376d67356f6f6265746e636f6a636d3363336878617379643472766964346a71687934676b61686567342f3f66696c656e616d653d302d5055472e6a736f6e000000000000000000",
        "nonce": "0x5",
        "chainId": "0xa869"
      },
      "additionalContracts": [],
      "isFixedGasLimit": false
    }
  ],
  "receipts": [
    {
      "status": "0x1",
      "cumulativeGasUsed": "0x2ca35",
      "logs": [
        {
          "address": "0xd95cd883722ad1207b3c82cfd02dcac7e308faff",
          "topics": [
            "0xddf252ad1be2c89b69c2b068fc378daa952ba7f163c4a11628f55a4df523b3ef",
            "0x0000000000000000000000000000000000000000000000000000000000000000",
            "0x000000000000000000000000390a1e00aa3d868a084caccd1095f41be5e7ca13",
            "0x0000000000000000000000000000000000000000000000000000000000000000"
          ],
          "data": "0x",
          "blockHash": "0xced6e1d3662d23f89ed1353e5777ddb5068022fcc3b2472b308c0b23faef0f99",
          "blockNumber": "0x2cdc38c",
          "transactionHash": "0x4298945e194a7b853ad8bf5dda3a4f320f798d2a786396cb4b069c92976d3c64",
          "transactionIndex": "0x0",
          "logIndex": "0x0",
          "removed": false
        }
      ],
      "logsBloom": "0x00000000000000000000000000000000000200000000000000000000000000000000000000000000000000000000000000000000000000000000000000000000000000000000000000000008000000000000000008000000000000010000000000000000020000000000000000000800000000000000000000000010000000000000000000000000000000000000000000000000000000000000000000000000000000000000000000000000000000000000000000000000000000001000080000000002000000000000000000000000000000000000000000000000000020000000000000000000000000000000000000000000000000000100000000000000",
      "type": "0x2",
      "transactionHash": "0x4298945e194a7b853ad8bf5dda3a4f320f798d2a786396cb4b069c92976d3c64",
      "transactionIndex": "0x0",
      "blockHash": "0xced6e1d3662d23f89ed1353e5777ddb5068022fcc3b2472b308c0b23faef0f99",
      "blockNumber": "0x2cdc38c",
      "gasUsed": "0x2ca35",
      "effectiveGasPrice": "0x2",
      "from": "0x390a1e00aa3d868a084caccd1095f41be5e7ca13",
      "to": "0xd95cd883722ad1207b3c82cfd02dcac7e308faff",
      "contractAddress": null
    }
  ],
  "libraries": [],
  "pending": [],
  "returns": {},
  "timestamp": 1760938015,
  "chain": 43113,
  "commit": "67eb44e"
}